:100D8D000D0A00494E495420554152540D0A005345
:100D9D00686F772074656D7065726174757265200A
:030DAD003A2000E9
:1000640041000800C1014100100041001500440096
:100074000C00000000420009000041001A00420088
:0300840000000079
:100DEF007401A807088002C333D8FCFF900008E005
:0A0DFF005F60047F0180027F002284
:100D3100ED6016900008E0FE7401A807088002C368
:100D410033D8FC4E900008F022900008E0FE7401B8
:100D5100A807088002C333D8FCF45E900008F02293
:100B5900E490009DF0A3F0900000F0A3F090000055
:100B6900E0FEA3E0FFE4FCFD7B04FAF9F8D31204EC
:100B79007B405430EFFD90000CE0F8A3E0F9A3E0CE
:100B8900FAA3E0FBAFC3EF75F010A4ADC27C002D52
:100B9900FFEC35F0A2E713FEEF1325E0FFEE33FE7D
:100BA9003395E0FDFCEB2FFFEA3EFEE93DFDE83C15
:100BB900FC90000C12049F900001E004F070069074
:100BC9000000E004F0809690000CE0FCA3E0FDA397
:100BD900E0FEA3E0FF780212048C90009DEEF0A3E2
:020BE900EFF02B
:010BEB0022E7
:100DD200E490009BF0A3F0120B5990009BEEF0A35D
:0C0DE200EFF0D2EE90009BE0FEA3E0FFDB
:010DEE0022E2
:040E3E008F828E838E
:030E4200E493FF37
:010E4500228A
:0804DC009000B2EEF0A3EFF076
:1004E400E4FCFBFA9000B2E0FEA3E07807CEC3136D
:1004F400CE13D8F97807C333CE33CED8F9FF9000A2
:10050400B4EEF0A3EFF0E4FCECFF9000B5E02FFFB5
:100514009000B4E03400FE120E3E7A00AB07741B68
:100524002CF582E43400F583EFF00CECB480D97C34
:10053400009000B3E0547F241BF582EC3400F58373
:10054400EDF09000B4E0FEA3E0F5A6EEF5A775AEDD
:10055400FFA2AF9200C2AF75C7AA75C755439F01EA
:10056400A20092AFA2AF9200C2AF75C7AA75C755D9
:1005740043A501A20092AF75AF22A2AF9200C2AF11
:1005840075C7AA75C75543A401A20092AFA2AF9242
:1005940000C2AF75C7AA75C755439F01A20092AFA9
:1005A400A2AF9200C2AF75C7AA75C75543A501A2F1
:1005B4000092AF75AF21E49000B4E0FEA3E02CF507
:1005C400A6EEF5A7741B2CF582E43400F583E0F560
:1005D400AEA2AF9200C2AF75C7AA75C75543A401B6
:1005E400A20092AF0CECB480CEA2AF9200C2AF7561
:1005F400C7AA75C75553A5FEA20092AFA2AF920039
:0F060400C2AF75C7AA75C755539FFEA20092AF2C
:0106130022C4
:100D6100EF14601214601A24027020EDB40103D351
:100D71008001C392B022EDB40103D38001C39285F7
:0C0D810022EDB40103D38001C39297223D
:10061400A2AF9200C2AF75C7AA75C755439F01A286
:100624000092AF75AF0475A60DE4F5A7A2AF9200D2
:10063400C2AF75C7AA75C75543A401A20092AFAD56
:10064400AEED54F090009CF0ED540FFD75A60CE453
:10065400F5A7A2AF9200C2AF75C7AA75C75543A448
:1006640001A20092AFAFAEEF75F010A47C002DFD97
:10067400EC35F0FCE412023990000312049FE4FF0D
:10068400FE7D407C40900003E0F8A3E0F9A3E0FA8B
:10069400A3E0FB12008EE4FBFA7980784012019704
:1006A40090001612049FA2AF9200C2AF75C7AA753C
:1006B400C755539FFEA20092AF53E8F043E80843A6
:1006C400E10143E13043E20E43A210C2EFD2EE3027
:1006D400EFFD900002E5C3F0900007E5C2F0AFC360
:1006E400EF75F010A4ADC27C002DFDEC35F0FCE4F8
:1006F400120239AB07AA06A905A804E4FFFE7D800F
:100704007C45120197900016E0F8A3E0F9A3E0FA03
:0C071400A3E0FB12008E90001112049F65
:0107200022B6
:100E200090000C1204AB00000000E4FDFF120D3135
:010E3000229F
:1007210090009BEFF012061490009BE0B40800408B
:10073100030207F190073CF828287302076C0207AF
:10074100800207F10207970207AE0207C50207DC24
:1007510002075453E8F043E80743B10253B2FDE402
:10076100F5F643F68043E1010207F153E8F043B3A4
:100771008053B47FE4F5F643F60143E10180715300
:10078100E8F043E80143AC0153ADFEE4F5F643F66E
:100791000243E101805A53E8F043E80343B1405377
:1007A100B2BFE4F5F643F60843E101804353E8F0B4
:1007B10043E80443B12053B2DFE4F5F643F61043B6
:1007C100E101802C53E8F043E80543B11053B2EF47
:1007D100E4F5F643F62043E101801553E8F043E8E0
:1007E1000643B10853B2F7E4F5F643F64043E1019D
:1007F10043E13043E20E53A2EFC2EFD2EE120E20DC
:0108010022D4
:0608020090009B12049F10
:10080800538EF75389F04389017B407A42790F78F8
:100818000090009BE0FCA3E0FDA3E0FEA3E0FF1234
:1008280003DBA804A905AA06AB079000A1E0FEA374
:10083800E0FFE4FCFD120350E47B0CFAF9F8120324
:10084800DBC374FF9FFF74FF9EFEE49DFDE49CFCE8
:10085800EFE49000A3EFF07B407A42790F780090A4
:10086800009BE0FCA3E0FDA3E0FEA3E0FF1203DB96
:10087800A804A905AA06AB079000A1E0FEA3E0FF23
:10088800E4FCFD120350E47B0CFAF9F81203DBC315
:1008980074FF9FFF74FF9EFEE49DFDE49CFC7808B6
:1008A80012048C90009FE07002A3E060219000A3E6
:1008B800E0F58A8F8CD28C308DFDC28DC28C900071
:0E08C800A0E024FFF090009FE034FFF080D508
:0108D60022FF
:03008B000200036D
:10000300C0E0C0D075D000C005C0077D01E4FF1279
:100013000D61D2AC538FEFD007D005D0D0D0E032F2
:100E0900538FF77586FFEFF404F586439C04D2AF40
:070E1900538FEF438F082205
:080A300090009BECF0A3EDF037
:100A3800A37427F0A37410F0E4FEA3F0A3F0EF6012
:100A48001F24FE601F24FE601F24FE601F24FE601A
:100A58001F24FE601F1460202402701E7E05801A69
:100A6800E4FE80167E0180127E02800E7E03800ADC
:100A78007E0480067E0680027E078E8F90009DE0B1
:100A8800FEA3E0A807088005CEC313CE13D8F9FF4C
:100A980090009FEEF0FAA3EFF0FB90009BE0FEA31E
:100AA800E0FF7C037DE81202FBAD03AC021202E911
:0C0AB80090009FEEF0A3EFF090001AF009
:010AC400220F
:0B0026009000AFEBF0A3EAF0A3E9F0BC
:10003100E4FFFE9000AFE0FBA3E0FAA3E0F98F82BA
:100041008E831202BC601B9000AFE0A3E0A3E00F1F
:10005100EFAC0670010E14F5828C831202BCF59987
:0200610080D14C
:01006300227A
:0408D700AB07AA06BB
:1008DB009000ABE4F0A3740FF09000ABE0FEA3E04C
:1008EB00249BF58274003EF583E4F0EBAE02781F97
:1008FB00CEC313CE13D8F9FF9000ADEEF0A3EFF0FB
:10090B004E600DEBF4FFEAF4FEEF2401FBE43EFA3C
:10091B009000ACE024FFF09000ABE034FFF07C00E3
:10092B007D0AAF03AE021202FBED2430FFE0FCA305
:10093B00E0249BF58274003CF583EFF07C007D0A8C
:10094B00AF03AE021202FBAA06AB07EB4A70C190D3
:10095B0000ADE07002A3E0601E9000ACE024FFF05D
:10096B009000ABE034FFF0E0FEA3E0249BF5827433
:10097B00003EF583742DF09000ABE0FEA3E0249BCA
:0A098B00F974003EFA7B0112002609
:01099500223F
:03002300020DB01B
:100DB000C0E0C083C08230980AD20190000BE59950
:100DC000F0C298309905200202C299D082D083D017
:020DD000E0320F
:100C7A0090009B1204AB0001C20053B1BF53B2BF34
:100C8A0075985043878053C4F843C42090009BE072
:100C9A00F8A3E0F9A3E0FAA3E0FB7F607EE37D1608
:100CAA007C001203DBC3E49FFFE49EFE74019DFDFA
:100CBA00E49CFC780812048C8FC690009BE0F8A391
:100CCA00E0F9A3E0FAA3E0FB7F607EE37D167C00F7
:100CDA001203DBC3E49FFFE49EFE74019DFDE49CC6
:100CEA00FCEFE48FC543C408D2ACD2AFD299D2028A
:010CFA0022D7
:100BEC00E58720E403020C79A2AF9200C2AF75C76F
:100BFC00AA75C755439F01A20092AF75A638E4F5BC
:100C0C00A775AF04A2AF9200C2AF75C7AA75C7553E
:100C1C0043A401A20092AF85AE0875A639F5A7A230
:100C2C00AF9200C2AF75C7AA75C75543A401A20005
:100C3C0092AF85AE09A2AF9200C2AF75C7AA75C7B5
:100C4C0055539FFEA20092AF75C7AA75C75585086C
:100C5C008475C7AA75C755850985A2AF9200C2AF26
:0D0C6C0075C7AA75C755539FFEA20092AF31
:010C79002258
:0D0E31001208D77BFF7A0D798D1200262262
:100CFB0090001AE0FF120E09E4F5B1F5B2F5B3F569
:100D0B00B4F5ACF5ADC2ACA2AF9200C2AF75C7AA39
:100D1B0075C755F59175C7AA75C75553A37BA20027
:060D2B0092AF4387022293
:100AC500120BECE4F5B1F5B2F5B3F5B4F5ACF5AD53
:100AD500D2AF7DA07C0F7F09120A30120C7A7BFF02
:100AE5007A0D79901200267F397E00120E317BFF38
:100AF5007A0D799C1200267F177E00120E317F0732
:100B0500120721E4FDFF120D61120CFB120C7AE4B1
:100B1500FD7F02120D6190009FE4F0A37464F0A3C1
:100B25007403F0A374E8F07F007E367D6E7C0112BD
:100B350008027D017F02120D61E41D1F120D617F08
:100B450007120721120DD2120E317D017F01120D00
:040B55006180B022E9
:030000000209965C
:10099600787FE4F6D8FD9000007FFF7E03E4F0A3A5
:0A09A600DFFCDEFA7581200209EB88
:10008E00EC4D6011E8497017ED33EC3304600DE46C
:10009E00FCFFFEFD22E933E8330470F80202A712DA
:1000AE00027258046009E4CC2481500628500902DB
:1000BE0002B12840030202AEC0E0EB4A7044B980A0
:1000CE0006D0E0FB02029DEF4E701CBD8008EBFFD8
:1000DE00EAFEE9FD80EBE98DF0A4FEE5F002017782
:1000EE00E9CDF9EAFEEBFFEF89F0A4FCE5F0CE894D
:1000FE00F0A42EFFE435F0CD89F0A42DFEE435F00A
:10010E008067EF4E7005BD80D780C3EF8BF0A4AC37
:10011E00F0EE8BF0A42CFCE435F0F8EF8AF0A42C72
:10012E00E5F038FCE433CB8DF0A42CFCE5F03BF885
:10013E00EE8AF0A42CFCE5F038F8E433CF89F0A475
:10014E002CFCE5F038CF3400CE89F0A42FFFE5F07B
:10015E003EFEE433C98DF0A42EFEE5F039CD8AF0D3
:10016E00A42FFFE5F03EFEE43DFD33D0E0FB50074B
:10017E000BBB000F0202B1EC2CFCEF33FFEE33FE93
:06018E00ED33FD020289C1
:100194000202B1EC5D046005E8590470030202A791
:1001A400120272580460F6EC4860F2EC7004FDFE32
:1001B400FF22C860DB2481C85009C398600250063E
:1001C4000202AE9850CAF582E9294B4A7005AB8207
:1001D40002029D75F0007C1A7880C3EF9BEE9AEDC5
:1001E40099400DC3EF9BFFEE9AFEED99FDE842F0B6
:1001F400DC23ACF0D0E0FFD0E0FED0E0FDAB822009
:10020400E7101BEB60BAEC2CFCEF33FFEE33FEED92
:1002140033FD020289E803F830E705C0F075F00009
:10022400EF2FFFEE33FEED33FD40B830E7C280AA76
:1002340075F020800E75F010800575F0087D007E45
:10024400007F003392D530D50312046DEC33401097
:10025400EF33FFEE33FEED33FDEC33FCD5F0ED224E
:0E026400E5F0247EA2D513CC92E7CDCEFF228A
:10027200E9D2E7C933E833F892D5EDD2E7CD33ECD2
:0702820033FC5002B2D5224B
:10028900EC30E7100FBF000C0EBE00080DBD0004D6
:100299000BEB6014A2D5EB13FCED92E7FD2274FF82
:1002A900FCFDFEFF22E480F8A2D574FF13FC7D80DB
:0302B900E480EFEF
:1009B000020AC5E493A3F8E493A34003F68001F28E
:1009C00008DFF48029E493A3F85407240CC8C33348
:1009D000C4540F4420C8834004F456800146F6DF17
:1009E000E4800B0102040810204080900064E47E43
:1009F000019360BCA3FF543F30E509541FFEE4930C
:100A0000A360010ECF54C025E060A840B8E493A3D2
:100A1000FAE493A3F8E493A3C8C582C8CAC583CAFD
:100A2000F0A3C8C582C8CAC583CADFE9DEE780BEB5
:010087000078
:1002BC00BB010CE58229F582E5833AF583E02250F7
:1002CC0006E92582F8E622BBFE06E92582F8E22241
:0D02DC00E58229F582E5833AF583E493225B
:1002E900EF8DF0A4A8F0CF8CF0A428CE8DF0A42E29
:0202F900FE22E3
:1002FB00BC000BBE0029EF8DF084FFADF022E4CCE7
:10030B00F875F008EF2FFFEE33FEEC33FCEE9DECAF
:10031B00984005FCEE9DFE0FD5F0E9E4CEFD22EDF5
:10032B00F8F5F0EE8420D21CFEADF075F008EF2F3F
:10033B00FFED33FD4007985006D5F0F222C398FD30
:05034B000FD5F0EA22CD
:10035000E88FF0A4CC8BF0A42CFCE98EF0A42CFC4C
:100360008AF0EDA42CFCEA8EF0A4CDA8F08BF0A4CA
:100370002DCC3825F0FDE98FF0A42CCD35F0FCEB29
:100380008EF0A4FEA9F0EB8FF0A4CFC5F02ECD39EE
:0F039000FEE43CFCEAA42DCE35F0FDE43CFC225B
:10039F0075F008758200EF2FFFEE33FECD33CDCC15
:1003AF0033CCC58233C5829BED9AEC99E582984098
:1003BF000CF582EE9BFEED9AFDEC99FC0FD5F0D675
:1003CF00E4CEFBE4CDFAE4CCF9A88222B800C1B99F
:1003DF000059BA002DEC8BF084CFCECDFCE5F0CBDD
:1003EF00F97818EF2FFFEE33FEED33FDEC33FCEB16
:1003FF0033FB10D703994004EB99FB0FD8E5E4F9D1
:10040F00FA227818EF2FFFEE33FEED33FDEC33FCBD
:10041F00C933C910D7059BE99A4007EC9BFCE99AB1
:10042F00F90FD8E0E4C9FAE4CCFB2275F010EF2FF6
:10043F00FFEE33FEED33FDCC33CCC833C810D707F6
:10044F009BEC9AE899400AED9BFDEC9AFCE899F831
:0E045F000FD5F0DAE4CDFBE4CCFAE4C8F922C4
:0E046D00C3E49FFFE49EFEE49DFDE49CFC22A0
:10047B00EB9FF5F0EA9E42F0E99D42F0E89C45F0D7
:01048B00224E
:10048C00E8600FECC313FCED13FDEE13FEEF13FF4E
:03049C00D8F12272
:0C049F00ECF0A3EDF0A3EEF0A3EFF022D0
:1004AB00A8828583F0D083D0821204C21204C212B8
:1004BB0004C21204C2E473E493A3C583C5F0C583DD
:1004CB00C8C582C8F0A3C583C5F0C583C8C582C89B
:0104DB0022FE
:00000001FF
