:100B8D0041000800C101410014004100190044005A
:100B9D001000000000420009000041001E0044004A
:0A0BAD000C000000004200000000F0
:100071007401A807088002C333D8FCFF900008E090
:0A0081005F60047F0180027F00220F
:100B3100ED6016900008E0FE7401A807088002C36A
:100B410033D8FC4E900008F022900008E0FE7401BA
:100B5100A807088002C333D8FCF45E900008F02295
:0B0C4A0090000C12047E00000000224D
:100BB80090000CE0FCA3E0FDA3E0FEA3E02401FF0D
:100BC800E43EFEE43DFDE43CFC90000C120472227D
:0F0C3B0090000CE0FCA3E0FDA3E0FEA3E0FF228D
:1009D900E49000A1F0A3F0900000F0A3F0900000D3
:1009E900E0FEA3E0FFE4FCFD7B04FAF9F8D312046E
:1009F9004E405430EFFD900010E0F8A3E0F9A3E079
:100A0900FAA3E0FBAFC3EF75F010A4ADC27C002DD3
:100A1900FFEC35F0A2E713FEEF1325E0FFEE33FEFE
:100A29003395E0FDFCEB2FFFEA3EFEE93DFDE83C96
:100A3900FC900010120472900001E004F07006901E
:100A49000000E004F08096900010E0FCA3E0FDA314
:100A5900E0FEA3E0FF780212045F9000A1EEF0A38C
:020A6900EFF0AC
:010A6B002268
:100BF600E490009FF0A3F01209D990009FEEF0A3B5
:0C0C0600EFF0D2EE90009FE0FEA3E0FFB4
:010C120022BF
:040C55008F828E8379
:030C5900E493FF22
:010C5C002275
:0804AF009000A8EEF0A3EFF0AD
:1004B700E4FCFBFA9000A8E0FEA3E07807CEC313A4
:1004C700CE13D8F97807C333CE33CED8F9FF9000CF
:1004D700AAEEF0A3EFF0E4FCECFF9000ABE02FFFF7
:1004E7009000AAE03400FE120C557A00AB07741F87
:1004F7002CF582E43400F583EFF00CECB480D97C62
:10050700009000A9E0547F241FF582EC3400F583A6
:10051700EDF09000AAE0FEA3E0F5A6EEF5A775AE14
:10052700FFA2AF9200C2AF75C7AA75C755439F0117
:10053700A20092AFA2AF9200C2AF75C7AA75C75506
:1005470043A501A20092AF75AF22A2AF9200C2AF3E
:1005570075C7AA75C75543A401A20092AFA2AF926F
:1005670000C2AF75C7AA75C755439F01A20092AFD6
:10057700A2AF9200C2AF75C7AA75C75543A501A21E
:100587000092AF75AF21E49000AAE0FEA3E02CF53E
:10059700A6EEF5A7741F2CF582E43400F583E0F589
:1005A700AEA2AF9200C2AF75C7AA75C75543A401E3
:1005B700A20092AF0CECB480CEA2AF9200C2AF758E
:1005C700C7AA75C75553A5FEA20092AFA2AF920066
:0F05D700C2AF75C7AA75C755539FFEA20092AF5A
:0105E60022F2
:100B6100EF14601214601A24027020EDB40103D353
:100B71008001C392B022EDB40103D38001C39285F9
:0C0B810022EDB40103D38001C392842252
:1005E700A2AF9200C2AF75C7AA75C755439F01A2B4
:1005F7000092AF75AF0475A60DE4F5A7A2AF920000
:10060700C2AF75C7AA75C75543A401A20092AFAD83
:10061700AEED54F09000A0F0ED540FFD75A60CE47C
:10062700F5A7A2AF9200C2AF75C7AA75C75543A475
:1006370001A20092AFAFAEEF75F010A47C002DFDC4
:10064700EC35F0FCE4120239900003120472E4FF67
:10065700FE7D407C40900003E0F8A3E0F9A3E0FAB8
:10066700A3E0FB12008EE4FBFA7980784012019731
:1006770090001A120472A2AF9200C2AF75C7AA7592
:10068700C755539FFEA20092AF53E8F043E80843D3
:10069700E10143E13043E20E43A210C2EFD2EE3054
:1006A700EFFD900002E5C3F0900007E5C2F0AFC38D
:1006B700EF75F010A4ADC27C002DFDEC35F0FCE425
:1006C700120239AB07AA06A905A804E4FFFE7D803C
:1006D7007C4512019790001AE0F8A3E0F9A3E0FA2D
:0C06E700A3E0FB12008E900015120472BC
:0106F30022E4
:100C2A0090001012047E00000000E4FDFF120B3158
:010C3A002297
:1006F40090009FEFF01205E790009FE0B4080040DF
:10070400030207C490070FF828287302073F020763
:10071400530207C402076A0207810207980207AF5F
:1007240002072753E8F043E80743B10253B2FDE45C
:10073400F5F643F68043E1010207C453E8F043B3FE
:100744008053B47FE4F5F643F60143E1018071532D
:10075400E8F043E80143AC0153ADFEE4F5F643F69B
:100764000243E101805A53E8F043E80343B14053A4
:10077400B2BFE4F5F643F60843E101804353E8F0E1
:1007840043E80443B12053B2DFE4F5F643F61043E3
:10079400E101802C53E8F043E80543B11053B2EF74
:1007A400E4F5F643F62043E101801553E8F043E80D
:1007B4000643B10853B2F7E4F5F643F64043E101CA
:1007C40043E13043E20E53A2EFC2EFD2EE120C2A01
:0107D4002202
:0607D50090009F12047267
:1007DB00538EF75389F04389017B407A42790F7826
:1007EB000090009FE0FCA3E0FDA3E0FEA3E0FF125E
:1007FB0003AEA804A905AA06AB079000A5E0FEA3CB
:10080B00E0FFE4FCFD120323E47B0CFAF9F812037E
:10081B00AEC374FF9FFF74FF9EFEE49DFDE49CFC42
:10082B00EFE49000A7EFF07B407A42790F780090CD
:10083B00009FE0FCA3E0FDA3E0FEA3E0FF1203AEEC
:10084B00A804A905AA06AB079000A5E0FEA3E0FF4C
:10085B00E4FCFD120323E47B0CFAF9F81203AEC39C
:10086B0074FF9FFF74FF9EFEE49DFDE49CFC7808E3
:10087B0012045F9000A3E07002A3E060219000A738
:10088B00E0F58A8F8CD28C308DFDC28DC28C90009E
:0E089B00A4E024FFF09000A3E034FFF080D52D
:0108A900222C
:03008B00020BD88D
:100BD800C0E0C0D075D000C005C0077D01E4FF1299
:0E0BE8000B61538FEFD007D005D0D0D0E03294
:100C1300538FF77586FFEFF404F586439C04D2AF38
:070C2300538FEF438F0822FD
:0809440090009FECF0A3EDF020
:10094C00A37427F0A37410F0E4FEA3F0A3F0EF60FF
:10095C001F24FE601F24FE601F24FE601F24FE6007
:10096C001F24FE601F1460202402701E7E05801A56
:10097C00E4FE80167E0180127E02800E7E03800AC9
:10098C007E0480067E0680027E078E8F9000A1E09A
:10099C00FEA3E0A807088005CEC313CE13D8F9FF39
:1009AC009000A3EEF0FAA3EFF0FB90009FE0FEA303
:1009BC00E0FF7C037DE81202CEAD03AC021202BC58
:0C09CC009000A3EEF0A3EFF090001EF0EE
:0109D80022FC
:100A6C00E58720E403020AF9A2AF9200C2AF75C772
:100A7C00AA75C755439F01A20092AF75A638E4F53D
:100A8C00A775AF04A2AF9200C2AF75C7AA75C755C0
:100A9C0043A401A20092AF85AE0875A639F5A7A2B2
:100AAC00AF9200C2AF75C7AA75C75543A401A20087
:100ABC0092AF85AE09A2AF9200C2AF75C7AA75C737
:100ACC0055539FFEA20092AF75C7AA75C7558508EE
:100ADC008475C7AA75C755850985A2AF9200C2AFA8
:0D0AEC0075C7AA75C755539FFEA20092AFB3
:010AF90022DA
:100AFA0090001EE0FF120C13E4F5B1F5B2F5B3F560
:100B0A00B4F5ACF5ADA2AF9200C2AF75C7AA75C76E
:100B1A0055F59175C7AA75C75553A37BA20092AF25
:070B2A00438702120BB82201
:10000300120A6CE4F5B1F5B2F5B3F5B4F5ACF5ADA0
:10001300D2AF7DA07C0F7F091209447F071206F43B
:10002300120C4AE4FDFF120B61120AFAE4FD7F028F
:10003300120B619000A3E4F0A37464F0A37403F0C3
:10004300A374E8F07F007E367D6E7C011207D57DB8
:10005300017F02120B61E41D1F120B617F07120661
:0E006300F4120BF67D017F01120B6180B622B4
:030000000208AA49
:1008AA00787FE4F6D8FD9000007FFF7E03E4F0A392
:0A08BA00DFFCDEFA7581200208FF62
:10008E00EC4D6011E8497017ED33EC3304600DE46C
:10009E00FCFFFEFD22E933E8330470F80202A712DA
:1000AE00027258046009E4CC2481500628500902DB
:1000BE0002B12840030202AEC0E0EB4A7044B980A0
:1000CE0006D0E0FB02029DEF4E701CBD8008EBFFD8
:1000DE00EAFEE9FD80EBE98DF0A4FEE5F002017782
:1000EE00E9CDF9EAFEEBFFEF89F0A4FCE5F0CE894D
:1000FE00F0A42EFFE435F0CD89F0A42DFEE435F00A
:10010E008067EF4E7005BD80D780C3EF8BF0A4AC37
:10011E00F0EE8BF0A42CFCE435F0F8EF8AF0A42C72
:10012E00E5F038FCE433CB8DF0A42CFCE5F03BF885
:10013E00EE8AF0A42CFCE5F038F8E433CF89F0A475
:10014E002CFCE5F038CF3400CE89F0A42FFFE5F07B
:10015E003EFEE433C98DF0A42EFEE5F039CD8AF0D3
:10016E00A42FFFE5F03EFEE43DFD33D0E0FB50074B
:10017E000BBB000F0202B1EC2CFCEF33FFEE33FE93
:06018E00ED33FD020289C1
:100194000202B1EC5D046005E8590470030202A791
:1001A400120272580460F6EC4860F2EC7004FDFE32
:1001B400FF22C860DB2481C85009C398600250063E
:1001C4000202AE9850CAF582E9294B4A7005AB8207
:1001D40002029D75F0007C1A7880C3EF9BEE9AEDC5
:1001E40099400DC3EF9BFFEE9AFEED99FDE842F0B6
:1001F400DC23ACF0D0E0FFD0E0FED0E0FDAB822009
:10020400E7101BEB60BAEC2CFCEF33FFEE33FEED92
:1002140033FD020289E803F830E705C0F075F00009
:10022400EF2FFFEE33FEED33FD40B830E7C280AA76
:1002340075F020800E75F010800575F0087D007E45
:10024400007F003392D530D503120440EC334010C4
:10025400EF33FFEE33FEED33FDEC33FCD5F0ED224E
:0E026400E5F0247EA2D513CC92E7CDCEFF228A
:10027200E9D2E7C933E833F892D5EDD2E7CD33ECD2
:0702820033FC5002B2D5224B
:10028900EC30E7100FBF000C0EBE00080DBD0004D6
:100299000BEB6014A2D5EB13FCED92E7FD2274FF82
:1002A900FCFDFEFF22E480F8A2D574FF13FC7D80DB
:0302B900E480EFEF
:1008C400020003E493A3F8E493A34003F68001F247
:1008D40008DFF48029E493A3F85407240CC8C33335
:1008E400C4540F4420C8834004F456800146F6DF04
:1008F400E4800B0102040810204080900B8DE47EFC
:10090400019360BCA3FF543F30E509541FFEE493F8
:10091400A360010ECF54C025E060A840B8E493A3BF
:10092400FAE493A3F8E493A3C8C582C8CAC583CAEA
:10093400F0A3C8C582C8CAC583CADFE9DEE780BEA2
:010BB700003D
:1002BC00EF8DF0A4A8F0CF8CF0A428CE8DF0A42E56
:0202CC00FE2210
:1002CE00BC000BBE0029EF8DF084FFADF022E4CC14
:1002DE00F875F008EF2FFFEE33FEEC33FCEE9DECDD
:1002EE00984005FCEE9DFE0FD5F0E9E4CEFD22ED23
:1002FE00F8F5F0EE8420D21CFEADF075F008EF2F6D
:10030E00FFED33FD4007985006D5F0F222C398FD5D
:05031E000FD5F0EA22FA
:10032300E88FF0A4CC8BF0A42CFCE98EF0A42CFC79
:100333008AF0EDA42CFCEA8EF0A4CDA8F08BF0A4F7
:100343002DCC3825F0FDE98FF0A42CCD35F0FCEB56
:100353008EF0A4FEA9F0EB8FF0A4CFC5F02ECD391B
:0F036300FEE43CFCEAA42DCE35F0FDE43CFC2288
:1003720075F008758200EF2FFFEE33FECD33CDCC42
:1003820033CCC58233C5829BED9AEC99E5829840C5
:100392000CF582EE9BFEED9AFDEC99FC0FD5F0D6A2
:1003A200E4CEFBE4CDFAE4CCF9A88222B800C1B9CC
:1003B2000059BA002DEC8BF084CFCECDFCE5F0CB0A
:1003C200F97818EF2FFFEE33FEED33FDEC33FCEB43
:1003D20033FB10D703994004EB99FB0FD8E5E4F9FE
:1003E200FA227818EF2FFFEE33FEED33FDEC33FCEB
:1003F200C933C910D7059BE99A4007EC9BFCE99ADF
:10040200F90FD8E0E4C9FAE4CCFB2275F010EF2F23
:10041200FFEE33FEED33FDCC33CCC833C810D70723
:100422009BEC9AE899400AED9BFDEC9AFCE899F85E
:0E0432000FD5F0DAE4CDFBE4CCFAE4C8F922F1
:0E044000C3E49FFFE49EFEE49DFDE49CFC22CD
:10044E00EB9FF5F0EA9E42F0E99D42F0E89C45F004
:01045E00227B
:10045F00E8600FECC313FCED13FDEE13FEEF13FF7B
:03046F00D8F1229F
:0C047200ECF0A3EDF0A3EEF0A3EFF022FD
:10047E00A8828583F0D083D082120495120495123F
:10048E000495120495E473E493A3C583C5F0C58364
:10049E00C8C582C8F0A3C583C5F0C583C8C582C8C8
:0104AE00222B
:00000001FF
